:020000040800F2
:1000000030040020C1010008351900083719000824
:100010003B1900083F1900084319000800000000C0
:100020000000000000000000000000004919000866
:1000300047190008000000004B1900084D1900087E
:10004000611900086319000865190008671900089C
:10005000691900086B1900086D1900086F1900086C
:10006000711900087319000875190008771900083C
:10007000791900087B1900087D1900087F1900080C
:1000800081190008831900088519000887190008DC
:10009000891900088B1900088D1900088F190008AC
:1000A000911900089319000895190008971900087C
:1000B000991900089B1900089D1900089F1900084C
:1000C000A1190008A3190008A5190008A71900081C
:1000D000A9190008AB190008AD190008AF190008EC
:1000E000B1190008B3190008B5190008B7190008BC
:1000F000B9190008BB190008BD190008BF1900088C
:10010000C1190008C3190008C5190008C71900085B
:10011000C9190008CB190008CD190008CF1900082B
:10012000D1190008D3190008D5190008D7190008FB
:10013000DFF80CD001F06AFC00480047771800088F
:100140003004002030BF704720BF704740BF704769
:10015000BFF36F8F7047BFF34F8F7047BFF35F8F51
:10016000704701DF7047EFF31480704780F3148805
:10017000BFF36F8F7047EFF30980704780F30988F2
:100180007047EFF30880704780F30888704762B6C5
:10019000704772B67047EFF31080704771B67047C2
:1001A00061B67047EFF31380704780F31188704792
:1001B000EFF31280704740BA704700BA70470000F2
:1001C0000048004731010008FA49096801F0380188
:1001D000F84A116011460968014311607047F549FA
:1001E000096821F00801F34A1160114609680143CA
:1001F00011607047EF49096821F01001ED4A116064
:1002000011460968014311607047EB48E9494860AD
:10021000EA4848607047E748006940F08000E549D7
:10022000086170470420E349C96801F00101012910
:1002300001D101200EE0DF49C96811F0040F01D09F
:10024000022007E0DB49C96811F0100F01D003203C
:1002500000E0042070470020FF2000E0401E00283E
:10026000FCD1704770B504460425FFF7DBFF054657
:1002700005E0FFF7F0FFFFF7D5FF0546641E012DEF
:1002800001D1002CF5D104B90525284670BD70B503
:100290000546042440F6FF70FFF7E4FF0446042CF3
:1002A00019D1C448006940F00200C24908610846FB
:1002B0004561006940F04000086140F6FF70FFF7BB
:1002C000D1FF0446012C06D0BA48006941F6FD7101
:1002D0000840B8490861204670BD10B5042440F6B6
:1002E000FF70FFF7BFFF0446042C18D1B148006926
:1002F00040F00400AF4908610846006940F0400042
:10030000086140F6FF70FFF7ADFF0446012C06D0F0
:10031000A848006941F6FB710840A64908612046DB
:1003200010BD10B5042440F6FF70FFF79BFF044694
:10033000042C3CD1A0489F498860A04888600846AA
:10034000006940F0200008610846006940F0400064
:10035000086140F6FF70FFF785FF0446042C1DD1AD
:100360009448006941F6DF710840924908610846E7
:10037000006940F010000861A520914908804FF005
:100380000F00FFF76FFF0446012C10D08948006969
:1003900041F6EF7108408749086108E0012C06D05A
:1003A0008448006941F6EF7108408249086120469F
:1003B00010BD70B505460E4604240F20FFF752FF0E
:1003C0000446042C25D17B48006940F0010079499E
:1003D00008612E800F20FFF745FF0446042C0FD143
:1003E000300C68800F20FFF73DFF0446012C10D031
:1003F0007048006941F6FE7108406E49086108E0E6
:10040000012C06D06B48006941F6FE71084069492D
:100410000861204670BD70B505460E4604240F20C5
:10042000FFF720FF0446042C13D16248006940F016
:100430000100604908612E800F20FFF713FF04467A
:10044000012C06D05B48006941F6FE71084059490D
:100450000861204670BD70B505460E4604240F2085
:10046000FFF700FF0446042C17D153485149886018
:10047000524888600846006940F0100008612E80EC
:100480000F20FFF7EFFE0446012C06D04948006913
:1004900041F6EF71084047490861204670BD2DE9DB
:1004A000F04704464FF6FF763746B046B14604257E
:1004B000E443E6B2C4F30727C4F307484FEA1469DC
:1004C0000F20FFF7CFFE0546042D3ED13A483949AB
:1004D00088603A4888600846006940F0100008616A
:1004E000FF2E06D0374806804FF00F00FFF7BAFE08
:1004F0000546042D08D1FF2F06D0334807804FF062
:100500000F00FFF7AFFE0546042D09D1B8F1FF0F2C
:1005100006D02E48A0F80C880F20FFF7A3FE054652
:10052000042D09D1B9F1FF0F06D02848A0F80E9884
:100530000F20FFF797FE0546012D06D01D480069E4
:1005400041F6EF7108401B4908612846BDE8F08775
:1005500070B50546042440F6FF70FFF783FE04469D
:10056000042C50D114481349886014488860084608
:10057000006940F0200008610846006940F0400032
:10058000086140F6FF70FFF76DFE0446042C31D180
:100590000848006941F6DF710840064908610846CD
:1005A000006940F01000086195B1002004490880FE
:1005B00011E000000020024023016745AB89EFCD28
:1005C00000F8FF1F08F8FF1F0AF8FF1F00F0FF1FC9
:1005D000A5204549088040F6FF70FFF743FE04461A
:1005E000012C10D04148006941F6EF7108403F49A5
:1005F000086108E0012C06D03C48006941F6DF7133
:1006000008403A490861204670BD2DE9F04107468F
:100610000D461646042436483449886035488860BB
:100620000F20FFF71FFE0446042C1AD12F48006943
:1006300040F010002D49086147EA0500304340F0C2
:10064000F8002D4908804FF00F00FFF70BFE04461D
:10065000012C06D02548006941F6EF710840234976
:1006600008612046BDE8F0812048C06980087047D5
:100670001E48006A704700201C49C96911F0020F2A
:1006800001D0012000E000207047002017490968D0
:1006900011F0200F01D0012000E00020704729B1A7
:1006A000124A12690243114B1A6104E00F4A12699F
:1006B00082430E4B1A61704701460020012908D180
:1006C0000A4AD26912F0010F01D0012008E000208F
:1006D00006E0064AD2680A4201D0012000E000206C
:1006E00070470249C860704700F8FF1F00200240B1
:1006F00023016745AB89EFCD02F8FF1F10B5044613
:10070000C549601A8C422FD009DCC448201810D08B
:10071000B0F5806F16D0B0F5006F4AD11BE0B0F590
:10072000806F2AD0B0F5006F30D0B0F5406F40D167
:1007300035E00121042000F02AFD0021042000F012
:1007400026FD37E00121082000F021FD00210820CE
:1007500000F01DFD2EE00121102000F018FD002109
:10076000102000F014FD25E00121202000F00FFDF5
:100770000021202000F00BFD1CE00121402000F0B2
:1007800006FD0021402000F002FD13E00121802041
:1007900000F0FDFC0021802000F0F9FC0AE00121BE
:1007A000080200F0F4FC00214FF4807000F0EFFC30
:1007B00000E000BF00BF10BD10B50121084600F0E9
:1007C000E6FC0021012000F0E2FC10BD2DE9F04123
:1007D000024600250026002000230024002791F86F
:1007E00003C00CF00F0591F803C01CF0100F03D0EC
:1007F00091F802C04CEA0505B1F800C01CF0FF0FEB
:1008000031D0146800202BE04FF0010C0CFA00F3FB
:10081000B1F800C00CEA03069E4220D183004FF0DD
:100820000F0C0CFA03F7BC4305FA03FC4CEA040472
:1008300091F803C0BCF1280F06D14FF0010C0CFA5F
:1008400000FCC2F814C00AE091F803C0BCF1480FE4
:1008500005D14FF0010C0CFA00FCC2F810C0401C8E
:100860000828D1D31460B1F800C0BCF1FF0F34DD0B
:10087000546800202EE000F1080C4FF0010808FA3F
:100880000CF3B1F800C00CEA03069E4221D18300AC
:100890004FF00F0C0CFA03F7BC4305FA03FC4CEACB
:1008A000040491F803C0BCF1280F05D100F1080C35
:1008B00008FA0CF8C2F8148091F803C0BCF1480F94
:1008C00007D100F1080C4FF0010808FA0CF8C2F843
:1008D0001080401C0828CED35460BDE8F0814FF64C
:1008E000FF710180022181700421C17070470246AE
:1008F000002093680B4201D0012000E000207047E7
:100900000146886880B2704702460020D3680B42D7
:1009100001D0012000E0002070470146C86880B285
:10092000704701617047416170470AB1016100E0A1
:1009300041617047C16070474FF480320A43826161
:100940008161826182698269704702460020344B6E
:1009500018684FF68073184040EA02100843304B85
:10096000186070472F49C8617047F0B50A460023E8
:100970000024002100252A4E7168C0F3034583B28C
:1009800000F44016B6F5401F08D121F07061244EE6
:10099000766826F07066224F7E6012E000F48016C2
:1009A000B6F5801F06D1032606FA05F4A14341F0EF
:1009B000706106E0460D360103FA06F6B14341F0D8
:1009C000706122B1460D360103FA06F63143144E2A
:1009D0007160F0BD30B500228B071C0F0F2303FAA6
:1009E00004F20F4B08338C1053F8243093430C4C13
:1009F00008348D1044F8253023468C1053F82430E9
:100A00008C07240F00FA04F42343054C08348D109E
:100A100044F8253030BD00000014014000F8FEBF4E
:100A200000000140000020420020411EF84A1160F1
:100A30006FF07042F749C1F884204FF0FF314FF05A
:100A4000E022C2F880126FF07042F3490A6000BFE2
:100A500004E00022F14941F82020401C0F28F8D37F
:100A6000704700204FF02061ED4A116001464FF0C1
:100A7000E022C2F8081DEB49EB4A1160014602F181
:100A80000402116002F10402116000BF05E00022BF
:100A9000E5490C3141F82020401C0328F7D3002100
:100AA000E24A11604FF0FF314FF0E022C2F8281DFA
:100AB000DF4A11604FF0E022C2F8301D7047D9497B
:100AC0000143D94A11607047F0B50021002200238C
:100AD00000250F24C678EEB3D34E366806F4E066E0
:100AE000C6F5E0664FEA1621C1F1040524FA01F4C7
:100AF000467806FA05F1867806EA040646EA010118
:100B00004FEA011106784FEA86764FEAD66601FA77
:100B100006F1C24E07784FEAA70756F82720067855
:100B20004FEA86764FEAD6674FF0FF0606FA07F3DC
:100B300022EA030201EA030142EA0102B74E077802
:100B40004FEAA70746F82720067806F01F074FF060
:100B5000010600E00BE006FA07F607784FEA671790
:100B60004FF0E02C0CEB8707C7F800610BE006782C
:100B700006F01F070126BE40A54F90F800C04FEABF
:100B80006C1C47F82C60F0BD002101704170817031
:100B9000C170704710B5FFF7FCFA10BD10B5FFF734
:100BA000F6FA10BD10B5FFF7F9FA10BD10B5FFF752
:100BB000F7FA10BD10B504462001FFF7F6FA10BD94
:100BC00010B5FFF7F5FA10BD95480068C0F309307D
:100BD000704710B501460020002201F01F040123D8
:100BE00003FA04F28A4B80334C1153F8243013403B
:100BF000934201D1012000E0002010BD8D49086022
:100C0000704700F01F0201219140834A121F4311D7
:100C100042F82310704782480068C0F3090070470B
:100C200010B501460020002201F01F04012303FA41
:100C300004F2794B7C334C1153F824301340934227
:100C400001D1012000E0002010BD7B480068704702
:100C50007A4A0A4002437A4B1A6070477148001D75
:100C60007149086070476F48401C6F4908607047C1
:100C700041B1744A126842EA00024FF0E023C3F81F
:100C8000102D07E06F4A126822EA00024FF0E023BD
:100C9000C3F8102D704710B5002200F01F04012387
:100CA00003FA04F241B1614B1B6843EA02034FF0BF
:100CB000E024C4F8243D07E05C4B1B6823EA0203F0
:100CC0004FF0E024C4F8243D10BDF0B503460C46B7
:100CD00015460020FF2200260021534F3F6807F4ED
:100CE000E067C7F5E0674FEA1721C1F1040022FA77
:100CF00001F204FA00F105EA020747EA01014FEAAE
:100D0000011103F0C0004FEA9010C3F301224FEA33
:100D1000C20701FA07F14FEAC20C4FF0FF0707FACA
:100D20000CF6494F57F8207027EA0607DFF818C17C
:100D30004CF82070674657F8207047EA01074CF8D6
:100D40002070F0BD10B50246002000230021910A5A
:100D500001F00F01012404FA01F1344C246804EA83
:100D600001038B4201D1012000E0002010BD0021D1
:100D700000F01F012A4A12684FF0010303FA01F341
:100D800042EA03024FF0E023C3F8042D704710B588
:100D9000002100F01F01224A1268A1F101034FF067
:100DA000010404FA03F442EA04024FF0E023C3F81A
:100DB000042D10BD10B50246002000230021C2F30F
:100DC0008331012404FA01F1184C246804EA010378
:100DD0008B4201D1012000E0002010BD30B501465A
:100DE000002000220023C1F38142C1F3015312B954
:100DF0000F4C206830E0012A2CD1144C24684FEAB3
:100E0000C30524FA05F0022B22D000F00F0023E0E6
:100E100080E100E000E100E084E200E000E400E0C6
:100E200004ED00E00000FA050CED00E024ED00E028
:100E30002CED00E000EF00E000ED00E080FFFF1F80
:100E400008ED00E010ED00E018ED00E028ED00E016
:100E5000C0B201E0074C206830BD014600200022EE
:100E6000C1F3805212B9044B186801E0034B1868B3
:100E70007047000030ED00E034ED00E038ED00E0B8
:100E8000DE48006840F00100DC4908600846406820
:100E9000DB490840D949486008460068D9490840FC
:100EA000D64908600846006820F48020086008469B
:100EB000406820F4FE004860002088607047CF49F9
:100EC000096821F48031CD4A11601146096821F486
:100ED00080211160B0F5803F03D0B0F5802F0ED196
:100EE00006E0C649096841F48031C44A116007E050
:100EF000C249096841F4A021C04A116000E000BF66
:100F000000BF704710B501460022002300204A119F
:100F1000012A02D1B94C236806E0022A02D1B74C5B
:100F2000236A01E0B54C636A01F01F02012494407A
:100F30001C4201D0012000E0002010BD10B50024AB
:100F400000BF3120FFF7DEFFAF490870AF480068EF
:100F5000401CAE490860AC48007828B908460068D3
:100F6000A0F58071FF39ECD13120FFF7CBFF08B13C
:100F7000012400E00024204610BD014600209F4AC5
:100F8000106820F0F80040EAC10010607047A049E6
:100F90000860704702460020984B586820F47C1087
:100FA00042EA01031843954B586070479849086618
:100FB000704701460020914A506820F00300084322
:100FC000506070478D48406800F00C007047014643
:100FD00000208A4A506820F0F000084350607047B3
:100FE00001460020854A506820F4E06008435060C4
:100FF000704701460020814A506820F4605040EA62
:10100000C1005060704729B17C4A527A02437B4B41
:101010005A7206E0794A527AC343DBB21A40774BE0
:101020005A7270477B490860704701460020734A36
:10103000506820F440400843506070470021764AD1
:1010400011706E4A82F82010012802D0042808D1BD
:1010500003E00121704A117004E005216E4A11700D
:1010600000E000BF00BF70476C49086070476349EB
:10107000096A0143614A1162704769490860704713
:1010800030B500210022002400235C4D6D6805F07E
:101090000C0121B1042905D0082923D105E0614DB7
:1010A000056022E05F4D05601FE0544D6D6805F45A
:1010B0007012022505EB9242504D6D6805F48034A4
:1010C0001CB9594D554305600BE04C4D6D6815F446
:1010D000003F03D0544D5543056002E0514D554348
:1010E000056002E04F4D056000BF00BF434D6D68D5
:1010F00005F0F00109094D4D6B5C0568DD40456068
:101100003E4D6D6805F4E061090A484D6B5C456829
:10111000DD408560394D6D6805F46051C90A434D65
:101120006B5C4568DD40C560344D6D6805F4404139
:10113000890B3F4D6B5CC568B5FBF3F5056130BDB0
:1011400029B12E4A526902432C4B5A6104E02B4AC2
:1011500052698243294B5A61704729B1274A9269E3
:101160000243264B9A6104E0244A92698243234B4E
:101170009A61704729B1214AD26902431F4BDA6153
:1011800004E01E4AD26982431C4BDA61704729B1E0
:101190001A4AD2680243194BDA6004E0174AD2684F
:1011A0008243164BDA60704729B1144A1269024330
:1011B000124B1A6104E0114A126982430F4B1A6103
:1011C00070471C49086070471149C86470470B4953
:1011D000C87170470948406A40F08070074948620A
:1011E000704701460020054A92680A4201D001205A
:1011F00000E00020704701498872704700100240EB
:101200000000FFF8FFFFF6FE0400002000000020B1
:1012100000004242D8004242201002408004424274
:101220003C04424200127A0000093D00801A000886
:10123000901A000840044242042808D14FF0E021EF
:10124000096941F004014FF0E022116107E04FF01D
:10125000E021096921F004014FF0E022116170479B
:101260004FF0E02148617047012808D14FF0E0219C
:10127000096941F001014FF0E02211610EE0811C8B
:1012800008D14FF0E021096921F001014FF0E0227F
:10129000116103E000214FF0E0229161704740B1FD
:1012A0004FF0E021096941F002014FF0E0221161A5
:1012B00007E04FF0E021096921F002014FF0E02240
:1012C000116170474FF0E0208069704710B501460A
:1012D000002200230020CB10022B03D14FF0E0248A
:1012E000226902E04FF0E024E26901248C401442BC
:1012F00001D0012000E0002010BD000010B5044620
:10130000D949601A8C422BD006DCD848201813D05B
:10131000B0F5806F38D119E0B0F5806F2AD0B0F504
:101320006C4F31D101218803FFF731FF00214FF4C9
:101330008040FFF72CFF28E001214804FFF734FF2D
:1013400000214FF40030FFF72FFF1EE00121880439
:10135000FFF72AFF00214FF48020FFF725FF14E05C
:101360000121C804FFF720FF00214FF40020FFF700
:101370001BFF0AE001210805FFF716FF00214FF4CB
:101380008010FFF711FF00E000BF00BF10BD2DE986
:10139000F04786B005460E460024A24600BF00BFB7
:1013A00000272F462C8A4CF6FF700440F088044337
:1013B0002C82AC894EF6F3100440B0883189084382
:1013C000718908430443AC81AC8A4FF6FF40044066
:1013D000B0890443AC8201A8FFF752FEA4488742BB
:1013E00002D1DDF810A001E0DDF80CA00AEBCA0084
:1013F00000EB0A1031688900B0FBF1F86420B8FBFB
:10140000F0F004012009642101FB1089322000EB77
:101410000910B0FBF1F000F00F0004432C8106B07E
:10142000BDE8F0874FF41651016000218180C18032
:1014300001810C21418100218181704710B5024654
:101440000020108A4FF2FF0318400B884C8823437A
:101450008C882343CC8823431843108210BD00217D
:10146000018041808180C180704721B1828942F42E
:101470000052828104E082894DF6FF731A40828116
:101480007047F0B5034600240026002500201846CA
:10149000C1F3421401F01F06012707FA06F5012CDB
:1014A00001D10C3004E0022C01D1103000E01430E6
:1014B0001AB107682F43076002E00768AF4307606F
:1014C000F0BD10B51AB1838A0B43838204E0838A8E
:1014D000CC43A4B22340838210BD028A4FF6F0733E
:1014E0001A400282028A0A430282704782894FF2BE
:1014F000FF731A40828182890A438281704721B139
:10150000828942F00202828104E082894FF6FD73F3
:101510001A4082817047028A4FF6DF731A400282B6
:10152000028A0A430282704721B1028A42F4804251
:10153000028204E0028A4BF6FF731A40028270476F
:10154000C1F308028280704701468888C0F3080012
:101550007047818941F0010181817047028BD2B2CD
:101560000283028B42EA012202837047028B02F45B
:101570007F420283028B0A430283704721B1828A31
:1015800042F02002828204E0828A4FF6DF731A4022
:101590008282704721B1828A42F01002828204E086
:1015A000828A4FF6EF731A408282704721B1828A95
:1015B00042F00802828204E0828A4FF6F7731A40F2
:1015C00082827047828A4FF6FB731A408282828A37
:1015D0000A438282704721B1828A42F002028282EB
:1015E00004E0828A4FF6FD731A40828270470246F9
:1015F000002013880B4201D0012000E0002070473A
:10160000CA430280704770B502460B460024002191
:1016100000250020C3F3421503F01F01012606FA3E
:1016200001F1012D02D19689314006E0022D02D14F
:10163000168A314001E0968A31401C12012606FAD2
:1016400004F41688344011B10CB1012000E00020F0
:1016500070BD10B5002200230A1201249440A3B2E9
:10166000DC43048010BD0000004C004000BCFFBF04
:101670000038014070B504460125208820B1282893
:101680000ED02B2829D127E025E094A000F0D0F936
:101690000821601A142100F0A5F900BF282020803D
:1016A0000821601A00F0A3F908B9002070BD00BF3E
:1016B0008FA000F0BDF90821601A142100F092F902
:1016C00000BF2B2020800821601A00F090F908B993
:1016D0000020EBE700BFD8E7F5E7002500202080D9
:1016E0000320E3E770B504460125208810B13B28AC
:1016F00015D10BE012E083A000F09AF90821601ADE
:101700000A2100F06FF900BF3B2020800821601AF9
:1017100000F06DF908B9002070BD00BFEBE70025AF
:10172000002020800320F7E71FB54FF4E130009040
:101730000020ADF80400ADF80600ADF80800ADF8E3
:101740000C000C20ADF80A0069467348FFF71FFE35
:10175000012240F225517048FFF793FE01216E48A7
:10176000FFF783FE1FBD10B56FF00100FFF77CFD92
:101770006FF00400FFF760FD0020FFF775FD67487C
:10178000FFF76EFD002201216548FFF79EFA012058
:10179000FFF76AFD0120FFF782FD10BD08B54FF489
:1017A0000070ADF8000003208DF8020018208DF8BD
:1017B000030069465B48FFF709F84FF48060ADF815
:1017C000000004208DF8030069465648FEF7FEFF2E
:1017D00008BD08B500214FF00060FFF739FA4FF45B
:1017E000E060FFF76CF925208DF8000000208DF8EF
:1017F000020001208DF803006846FFF765F908BD77
:1018000010B5FFF73DFB4FF48030FFF758FBFFF7B3
:1018100095FB0446012C24D10020FFF7D8FB0020C3
:10182000FFF7E7FBA002FFF7DBFB0220FEF7CCFC93
:101830001020FEF7DFFC4FF4E0112004FFF7AAFBB5
:101840000120FFF7B3FB00BF3920FFF75BFB002847
:10185000FAD00220FFF7ADFB00BFFFF7B3FB08286B
:10186000FBD1012144F21400FFF777FC01212E483F
:10187000FFF77BF810BDFFF7C3FFFFF7AAFFFFF7E5
:101880008DFFFFF770FFFFF74FFF2849A1F10C0014
:1018900000F0A4F82549264800F0A0F800202349CC
:1018A0000C3908812249088107E02048001FFFF712
:1018B000E1FE1F480830FFF715FFF6E770B5044654
:1018C0000D46E1B21448FFF73BFE00BF402112482D
:1018D000FFF78DFE0128F9D1204670BD0D0A3E3E6E
:1018E0003E3E3E3E3E3E3E3E3E3E0D0A0000000075
:1018F0000D0A3C3C3C3C3C3C3C3C3C3C3C3C0D0AEA
:10190000000000000D0A2D2D2D2D2D2D2D2D2D2DFE
:101910002D2D0D0A0000000000380140D0DD06002A
:101920009AC3020000080140000430001C0000209F
:1019300020000020704700BFFEE700BFFEE700BFA9
:10194000FEE700BFFEE77047704770472248D0E9C6
:1019500000305A1C40F100001F49C1E900207047C7
:1019600070477047704770477047704770477047BF
:1019700070477047704770477047704770477047AF
:10198000704770477047704770477047704770479F
:10199000704770477047704770477047704770478F
:1019A000704770477047704770477047704770477F
:1019B000704770477047704770477047704770476F
:1019C000704770477047704770477047704770475F
:1019D0007047704770477047080000200A68C2606F
:1019E00070470000084A1268026041607047014673
:1019F000D1E900021044044A1268904201D2012049
:101A000070470020FCE7000008000020064C074D4E
:101A100006E0E06840F0010394E8070098471034BE
:101A2000AC42F6D3FEF788FB941A0008B41A0008FB
:101A3000014A024900F013B8BD1800080C0000204C
:101A400002E008C8121F08C1002AFAD17047704787
:101A5000002001E001C1121F002AFBD170472DE9CF
:101A6000F04104460F461646002503E03946B047CC
:101A70006D1C641C20780028F8D12846BDE8F08150
:101A80000000000001020304010203040607080924
:101A900002040608B41A000800000020100000002C
:101AA000401A0008C41A000810000020200400009A
:101AB000501A0008000000000000000000000000B4
:041AC0000000000022
:0400000508000131BD
:00000001FF
